:1020000000800020994C0000814C0000814C0000B1
:1020100000000000000000000000000000000000C0
:10202000000000000000000000000000814C0000E3
:102030000000000000000000814C0000ED4C00009A
:10204000814C0000814C0000814C0000814C00005C
:10205000814C0000814C0000814C0000854C000048
:10206000814C0000F54B0000814C0000814C0000C9
:10207000492D0000814C0000814C0000814C000083
:10208000814C0000814C0000814C0000814C00001C
:1020900000000000814C0000814C0000814C0000D9
:1020A000814C0000814C0000814C0000814C0000FC
:1020B0000000000010B5064C2378002B07D1054B1B
:1020C000002B02D0044800E000BF0123237010BDA4
:1020D00020010020000000000881000008B5084B26
:1020E000002B03D00748084900E000BF07480368F9
:1020F000002B03D0064B002B00D0984708BDC046EC
:102100000000000008810000240100201C010020C4
:102110000000000070B5052086B0022102F0A4FF87
:102120000220012102F0A0FF0320012102F09CFF08
:102130000420012102F098FF0220002102F0EEFFAE
:102140000320002102F0EAFF0420002102F0E6FF54
:10215000424CE121201C490203F080FF4048082145
:1021600001F012F8051E1ED1291C022002F0D6FF34
:10217000291C032002F0D2FF291C042002F0CEFF0C
:10218000642002F0F9FD0220012102F0C7FF0320C4
:10219000012102F0C3FF0420012102F0BFFF6420EF
:1021A00002F0EAFDDAE72F49201C03F0CFF8022005
:1021B000002102F0B3FF0320002102F0AFFF002155
:1021C000042002F0ABFF284D281C00F03FFC281C27
:1021D000264900F05BFC2648291C1D2202F00BFB5F
:1021E0002E1C002802D1201C224901E02249201C7B
:1021F00003F0ACF8214D311C281C214A02F0A8FB49
:10220000002804D1201C1F4903F0A0F807E01E4954
:10221000201C03F09BF80220012102F07FFF68469A
:102220001A4903F0ACFD9D2252006B4603A8291CFD
:1022300002F090FC03A9281C02F006FC03A803F09E
:1022400057FD684603F054FD201C114903F07EF849
:102250000320012102F062FF06B070BD6808002073
:1022600008050020187A0000BC020020801A060031
:1022700090020020237A00002E7A000080010020C6
:10228000A0860100357A0000407A0000477A0000FD
:10229000707A000008B5044B011C1B78002B02D09B
:1022A000024803F031F808BDAC0200205C010020B8
:1022B00008B5044B011C1B78002B02D0024803F028
:1022C0001BF808BDAC0200205C01002038B5064BAD
:1022D000051C1B780A1C002B04D0044801684C68BC
:1022E000291CA04738BDC046AC0200205C0100207C
:1022F00070B54B688C68CD6843600A1C031CC560D0
:1023000084601033103270CA70C312781A70096A70
:10231000016270BD08B5024800F072FE08BDC046FB
:102320005C01002010B50B4800F032FE1D210A4868
:1023300002F054F9094C0A4B0022FF33201C0949D2
:102340009A7103F01CFD201C0749084A05F0AAF900
:1023500010BDC0465C01002090020020B0020020A9
:1023600080010020777A0000F15C0000000000206E
:10237000F0B58DB0464904A803F001FD04A8FFF7AD
:1023800097FF04A803F0B4FC02F0C4FC414C042104
:102390002060201CFFF79AFF3F4D0821281C1022C7
:1023A00000F0D6FB2F1C002610281DD10025381C5C
:1023B00000F036FC60550135042DF8D1374901A8ED
:1023C00003F0DDFC01A8FFF773FF01A803F090FC08
:1023D00004A8291C0496FFF779FF0136201C291C4C
:1023E000FFF774FF042EE1D12D4D281C02F040F9B7
:1023F000002827D02B4904A803F0C1FC04A8FFF74C
:1024000057FF04A803F074FC01230421201C23605F
:10241000FFF75CFF281C02F043FA04212060201C17
:10242000FFF754FF281C02F05DFA04212060201CF5
:10243000FFF74CFF281C02F077FA04212060201CD3
:10244000FFF744FF184D281C02F0D8FA002804D1E9
:10245000164800F048FD0DB0F0BD154904A803F082
:102460008EFC04A8FFF724FF04A803F041FC02231C
:10247000201C04212360FFF729FF281C02F0BEFA6C
:102480000028E5D0281C02F0CDFAFFF703FFF4E79F
:10249000937A00003C010020BC020020837A0000F7
:1024A00090020020877A0000800100205C0100205B
:1024B0008B7A0000F0B5A9B00DA800F069FD16A850
:1024C00000F066FD604F614A01231FA8391C00F02F
:1024D000F1FE1FA90DA8FFF70BFF0121032002F059
:1024E0001DFE642002F048FC0021032002F016FECD
:1024F000322002F041FC0320012102F00FFE1FA850
:102500000DA9012200F036FF16A81FA9FFF7F0FE63
:1025100016A800F082FD002800D190E016A800F077
:1025200045FD4B4C011C201C03F056FC211C01A84E
:1025300003F048FC474904A803F021FC01A804A9C2
:1025400003F0D4FC0125002828D1434907A803F053
:1025500016FC01A807A903F0C9FC00281BD13F49BC
:102560000AA803F00CFC01A80AA903F0BFFC00288C
:102570000ED13B491FA803F002FC01A81FA903F0DC
:10258000B5FC051C681E85411FA8EDB203F0B0FB29
:102590000AA803F0ADFB07A803F0AAFB04A803F008
:1025A000A7FB002D47D02F4D211C281C02F0C4FE94
:1025B000281C03F0CBFC0028FAD0281C03F0EEFC0A
:1025C000041E552C04D0442802D0582C2ED125E0CE
:1025D0001F4B1FA81A681C49012300F06BFE224EF6
:1025E0001FA9301CFFF784FE301C00F0F5FC00280A
:1025F00007D0301C00F08EFCC1B2281C03F09CFCFC
:10260000F2E7301C00F0FCFC281C03F09FFC0028C3
:10261000FAD0281C03F0C2FC442CD6D1124800F09A
:10262000EFFC0B4B381C196800F098FE4C2C02D1C3
:102630000D4800F0E5FC01A803F05AFB5FE70DA888
:1026400000F0DEFC29B0F0BD080500208F7A000004
:10265000B00200207F7A0000917A0000957A000095
:10266000997A0000680800205C01002030B503243E
:102670008BB00121032002F051FD642002F07CFBAD
:102680000320002102F04AFD013CC82002F074FB47
:10269000002CEED10320012102F040FD124D134C1D
:1026A000281C211C00F04EFE00281AD001A8291C6D
:1026B000221C012300F0FEFD0D4C01A9201CFFF798
:1026C00017FE201C00F088FC002807D0201C00F01A
:1026D00021FCC1B2074803F02FFCF2E7201C00F0F8
:1026E0008FFC0BB030BDC046080500209D7A00006D
:1026F0005C0100206808002030B501218BB0032068
:1027000002F00CFD642002F037FB0021032002F0F0
:1027100005FD642002F030FB0121032002F0FEFCE5
:10272000642002F029FB0021032002F0F7FC642062
:1027300002F022FB0320012102F0F0FC144C154DA5
:10274000211C281C00F00AFE01A8291C221C1723AA
:1027500000F0B0FD104C01A9201CFFF7C9FD0F4D82
:10276000281C03F0F3FB0028F9D0281C03F0EEFB33
:10277000002807D0281C03F011FCC1B2201C00F077
:1027800093FBF2E7201C00F03BFC0BB030BDC046D1
:102790009D7A0000080500205C01002068080020E8
:1027A000F0B597B0002304A8009300F0F1FB434C70
:1027B000434D201C291C00F0C5FD002815D0012325
:1027C0002A1C0DA8211C00F075FD0DA904A8FFF717
:1027D0008FFD6946042204A800F0EAFB04A800F07B
:1027E0000FFC201C291C00F0B9FD009B354E013365
:1027F0003549301C009303F0EFFA0099341C092985
:1028000002DC0DA8314909E0632902DC0DA830493A
:1028100004E0304B994217DC2F490DA803F0AFFAC2
:102820000A22009901A803F0F9FA01A90DA803F002
:102830004FFB011C201C03F01CFB01A803F058FAFD
:102840000DA803F055FA0FE0244B99420BDC0A2245
:102850000DA803F0E3FA301C0DA903F00AFB0DA844
:1028600003F046FA00E0FEE71D49201C03F008FBD8
:10287000124F3168381C00F065FD0028B5D11723D0
:102880002A1C0DA8391C00F015FD0DA904A8FFF79E
:102890002FFD6946042204A800F010FB04A800F0F4
:1028A000AFFB22680DA8391C172300F003FD0DA90A
:1028B0000C48FFF71DFD17B0F0BDC046080500200D
:1028C000A87A0000B0020020B57A0000B97A0000B2
:1028D000BA7A0000E70300006E7A00000F270000BC
:1028E0007E7A00005C01002038B5052002F046FC2D
:1028F000224C051E0FD12378002B0CD00420291C5C
:1029000002F00CFCFFF706FD1D4B0122FA2025709A
:102910001A70904010E02378002B2DD1002D0ED19D
:102920000420012102F0FAFBFFF73AFF154A0123C8
:10293000FA2023701370984002F01EFA1CE0124C2B
:10294000201C03F003FB002816DD201C03F0FEFA18
:10295000002811DD201C03F021FBC0B2412802D168
:10296000FFF7A8FD08E0422802D1FFF7C5FE03E00B
:10297000432801D1FFF77AFE38BDC046AC020020E3
:1029800005000020040000206808002008B5FFF7BB
:10299000ABFFFFF7EDFC08BD002070477047F8B5AE
:1029A000051C0F1C161C0024B44208D02B68395D8E
:1029B0001B68281C9847002801D00134F4E7201C2C
:1029C000F8BD7047031CFC33196ADA69914203D0E1
:1029D0001B6AC018007E01E0012040427047031CC2
:1029E000FC33D8691B6AC01A01D50130FF3070472B
:1029F000F7B50193FA239B008360134B80260025D3
:102A000076000833041C0F1C4560291C00920360EB
:102A1000321C183004F0B0FE231C9022FC3352000C
:102A2000DD61A0181D62321C291C04F0A5FE87225E
:102A30009200A3185D60019A9D60009B2761A575B7
:102A4000201C23756275FEBDC07A000070B50D496B
:102A5000041C006902F006FF206902F091FD1826AF
:102A6000207D331C4343084D0821EB18595602F0D2
:102A70009DFB607D08214643AD19695602F096FB27
:102A800070BDC046A0860100747B000038B5041CF0
:102A90000D1C006902F088FD291C206902F0E2FE8D
:102AA000206902F06DFD38BD8A2387229B009200C9
:102AB000C154831800225A609A60012383757047BD
:102AC000031CFC335A6810B501329C68D2B2A24292
:102AD00002D05C6801555A6010BDF7B50193002320
:102AE000041C151C181C9A4231D0221CFC32D361E4
:102AF00020691362012202F089FD002825D0206997
:102B000002F0F3FD271C1837011C381CFFF7D8FF13
:102B100001262069AE420ED002F058FD0221206944
:102B200002F05EFD206902F0E0FD011C381CFFF799
:102B3000C7FF0136EDE702F041FD019B002B05D0F8
:102B40002069032102F04CFD00E0051CE8B2FEBD47
:102B500008B50123FFF7C1FF08BD10B5827D002332
:102B60009A420DD08724A400021954689268013457
:102B7000E4B2944204D02130FF30FFF7A1FF0123DB
:102B8000181C10BD031CFC3399685A68914206D08A
:102B90009A68805C9A680132D2B29A6001E00120A2
:102BA0004042704770B500228A2382759B00041C46
:102BB0000E1CC15C006902F029FD002805D12069C6
:102BC000032102F00DFD022523E090235B00E018B5
:102BD00087239B00E21851689368CB1A01D5013313
:102BE000FF33002B0ED02569FFF7CCFFC1B2281CA4
:102BF00002F03BFD0028E8D12069032102F0F0FC3F
:102C0000032506E01D1C002E03D02069032102F0DD
:102C1000E7FC281C70BD08B50121FFF7C3FF08BD04
:102C200008B51830FFF7AEFF08BD38B5041C0069C1
:102C300002F039FD002800D184E0206902F041FD56
:102C400000280ED1206902F046FD00281FD020691F
:102C500002F03CFD00281AD0206902F041FD002856
:102C600015D1206902F0B2FC2069032102F0B8FC02
:102C70008C239B00E558002D04D02368201C1B6981
:102C80009847A847FC340023E36123625AE0206997
:102C900002F021FD031C2069002B19D002F096FCE4
:102CA0002069032102F09CFC206902F019FD002834
:102CB00048D087229200A31800225A609A6001230C
:102CC000A3758B239B00E35893423BD0984739E090
:102CD00002F0F2FC002835D0206902F001FD002846
:102CE00016D087239B00E21851689368CB1A01D550
:102CF0000133FF33FF21002B05D090225200A01892
:102D0000FFF740FFC1B2206902F0C0FCA07519E0D6
:102D1000231CFC33DA691B6A0132D2B220699A4261
:102D200002D102F04BFC09E002F0DFFC011C201C88
:102D30001830FFF7C5FE206902F048FC2069032126
:102D400002F04EFC38BD000008B50248FFF76DFFE9
:102D500008BDC046BC02002008B503480349142240
:102D60001523FFF745FE08BDBC02002044080020E3
:102D7000437A002B04D18372C372C3600123437270
:102D8000704730B585B0041C02AD00680291039213
:102D900002F0D2FB6B79E179227A0093206800235C
:102DA00002F03CFD29792068029A02F095FB206828
:102DB00002F0B8FB05B030BD70B5041C1826FFF753
:102DC000D7FF2079331C43430D4D0821EB1859568A
:102DD00002F0ECF9A079331C43430821EB18595653
:102DE00002F0E4F9607908214643AD19695602F012
:102DF000DDF9044B201C06CBFFF7C3FF70BDC046B6
:102E0000747B0000F004002007B5837A00910192E2
:102E1000002B0DD09A0706D5EFF310835A42534189
:102E2000C37272B604E0DA0702D58289034B9A6056
:102E30000099019AFFF7A5FF07BDC04600180040A2
:102E4000837A002B0BD09A0704D5C37A002B06D0C7
:102E500062B604E0DA0702D58289014BDA60704776
:102E60000018004008B5006802F06FFB08BD0000C4
:102E7000094B0A4A0A491A6000225A711A71094B11
:102E800019601621197118219971172159710121A1
:102E90005A72D9711A727047F004002000093D007F
:102EA00054080020F804002013B502686B46D9715D
:102EB00007335468191C0122A04716BD38B5041CFD
:102EC000006A0025A84202D1012363600AE0456040
:102ED00092B201F07DF8236A5B68002B02D00123D7
:102EE0006360281C38BD006A08B5002801D000F0D6
:102EF000BBFE08BD13B56C460734211C012200F04F
:102F0000B1FD012801D1207800E0014800B216BDD2
:102F1000FFFF0000006A08B5002802D0FFF7EAFFB3
:102F200001E00120404208BD38B5051C006A0028B8
:102F30000AD0FFF7DFFF041C631C05D0286A016973
:102F4000013900F05FFE201C38BD0000F8B5FA23FF
:102F50009B0083600D4B00250833041C4560036013
:102F600028200F1C161C04F0DBFB2062A8420AD0AC
:102F7000391C282204F0F7FB201C1030311C0C22D5
:102F800004F0E1FC2577201CF8BDC046E87A00007B
:102F9000FA2292008260044A0023083243600260F1
:102FA000036203747047C046E87A0000103070472F
:102FB000006A08B5002801D000F054FD08BD036A7E
:102FC000002B01D0186901E0012040427047006ADF
:102FD000002800D0C069704738B5041C006A00287A
:102FE0000BD0201CFFF7F3FF051C201CFFF7E7FFA9
:102FF000024B281A984200D9181C38BDFF7F0000E8
:1030000010B5041C006A002806D000F069FE206A92
:1030100004F090FB0023236210BD006A002803D057
:10302000407A431E9841C0B27047000010B50A1C98
:103030000C498AB0041C0023009169464B7201932D
:10304000211C6846012300F0FBFE041C601E844125
:10305000E4B2002C02D0684600F042FE201C0AB008
:1030600010BDC046287B000008B50123002A05D00A
:1030700000F094FF031C581E8341DBB2181C08BDEE
:1030800038B50122051C0C1C01F00EFA021C0120AF
:10309000002A03D1281C211C01F006FA38BDF0B526
:1030A0000C68035D2F3B5D426B41E418271C0C3715
:1030B000231CC55C1E1B2F2D09D0002D07D001330A
:1030C000161BF618013E3570BB42F2D10C260024C7
:1030D0009455C25C2F3A544262419B180B60C05C0D
:1030E000431E9841C0B2F0BDF0B5A1B00390254891
:1030F0000D1C049205930CAA002316A90D930C90A5
:103100005372179316904B7207932C1C009207A9C9
:1031100008AA0398FFF7C3FF0126021C7240019022
:10312000D2B2201C08A9059B049FB847002807D1EC
:10313000AC4201D1002023E0201C00F0D1FDF9E7D2
:10314000019F002F11D0331C0098211C08AA00F009
:1031500077FE061CAC420FD0201C00F0C1FD002EF3
:10316000E8D0231C009C0093D1E7AC4202D0201C85
:1031700000F0B6FD301C03E00028DBD016ACF0E711
:1031800021B0F0BD287B000038B5031C41331B780B
:10319000041C0D1C002B02D0383000F0A1FD201CB7
:1031A00001212A1C00F004FA002801D100200FE0C0
:1031B000251C1035281C211CFFF762FF0028F5D0C4
:1031C000201C3830291C00F023FC431E9841C0B25B
:1031D00038BD00004B6843600A4B03600B7A0372F2
:1031E0004B7A4372CB68C3600B6903614B694361DF
:1031F0000B7E0376CB69C3610B6A496A0362416245
:103200007047C046287B0000F0B59DB008AE029222
:103210000393274A002312AF051C73607B601031B3
:10322000301C0892737212927B7200F0F1FB029CC8
:10323000201C2F2104F062FB00282ED023782F2B96
:1032400001D10134F4E7001BC0B2031C0C2800D9E3
:103250000C23DBB21A1C211C04A8019304F073FB9D
:10326000019A002304A9381C8B5400F039FD381C46
:10327000311C04AA012300F0E3FD002804D10C4B0B
:1032800068602B60687210E0019B301CE41800F04D
:1032900027FD331C3E1C1F1CCAE70299039A641ABF
:1032A0001460281C311CFFF795FF281C1DB0F0BDD1
:1032B000287B0000F0B5A1B0051C1F1C02A801ABC3
:1032C000161CFFF7A1FF019BF6183378002B07D1DE
:1032D00002A916A8FFF77EFF281C16A9174A28E0A6
:1032E00000230CAC636063726B461133144A1B7885
:1032F0000C92002B03D1281CFFF74AFE1BE0201C78
:1033000002A9321C3B1C00F09BFD0028F3D002A850
:1033100000F0E6FC06231F409F4203D1201C1399B6
:1033200000F070FC211C16A8FFF754FF281C16A9FA
:10333000321CFFF70BFE281C21B0F0BD8F7A000075
:10334000287B000008B5031C081C191C3831024AF0
:103350000023FFF7C9FE08BD2D30000008B5031C8F
:10336000081C191C3831024A0023FFF7BDFE08BDB6
:1033700069300000F0B5A3B0041C0F1C019206AE2A
:10338000386A311C00F0F4FB002827DD3378002B6D
:1033900024D0E52BF3D02E2BF1D06B4623331A78B3
:1033A00008231340EBD1104A0EAD301C02A90F9335
:1033B0000E926B7200F0CEFA396A281C02AA019BA9
:1033C00000F03EFD002809D0291C18A8FFF702FFD5
:1033D000201C18A902AAFFF7B9FD02E0201CFFF784
:1033E000D7FD201C23B0F0BD287B0000084B022134
:1033F0001961191C002230310A7006495A719A71FC
:103400009A721A73DA63996341331A707047C0462F
:1034100008050020287B000008B5011C0148FFF7C3
:1034200021FD08BDF804002008B50248FF21FFF780
:1034300019FD08BDF804002008B50121007901F04C
:103440006DFE054B1A78002A04D0002203481A703A
:10345000FFF7F6FC08BDC04674050020F804002004
:1034600010B5084B041C1A78002A06D101221A70E4
:10347000054B064806CBFFF7C7FC2079002101F079
:103480004DFE10BD740500206C050020F8040020DE
:1034900010B58379041C002B0DD023895A1C22817E
:1034A000054A934202D8FFF7BFFFF6E7201CFFF75B
:1034B000C3FF0023A37110BD0102000000B506295F
:1034C00003D91623437100201CE00F4B052913D8A4
:1034D000081C002203F098FE030507090B0D0B4999
:1034E00008E00B4906E00B4904E00B4902E00B49F8
:1034F00000E00B49196002E00A4A1A6000221A71C2
:103500005A71012000BDC0466C050020001BB700A9
:1035100000093D0080841E0040420F0020A10700EA
:1035200090D0030048E8010038B50C1C01F0ECFB1A
:10353000051CFFF779FFFF2806D001F0E5FB401BD3
:10354000A042F6D3002000E0012038BDF8B5041CED
:103550000E1C171CFFF79CFF201CFFF781FF962114
:103560004900201CFFF7E0FF40203043FFF754FFE5
:103570001825381CE840C0B2083DFFF74DFF2B1C52
:103580000833F6D19520002E03D08720082E00D0D6
:10359000FF20FFF741FF0025FFF746FF43B2E0722F
:1035A000002B04DAFF2D02D00135EDB2F4E7F8BDAF
:1035B000F7B5002502710573857285714571041C8C
:1035C000019101F0A1FB0121071C207901F04CFDC4
:1035D0000121207901F0A2FD424E301CFFF7ECFBE7
:1035E000414B42491D715D711960301C5A68FFF7EB
:1035F0000BFC0A25013DFF20EDB2FFF70DFF002D6A
:10360000F8D1301CFFF71CFC201CFFF729FF00211C
:10361000201C0A1CFFF79AFF061CE072012808D044
:1036200001F072FBFA23C01BDB009842EFD90123A3
:103630003BE0D522201C08215200FFF787FF04231E
:10364000184201D026730BE01E1CFFF7EDFE013E71
:10365000F6B2E072002EF8D10223AA2825D12373F6
:10366000267B023E73425E41B60737210022201CB2
:10367000FFF76CFF321C201C2921FFF767FF021C9B
:10368000E07208D001F040FBFA23C01BDB00984237
:10369000EBD9082309E0237B022B19D1201C3A2106
:1036A000FFF754FF002805D006236371201CFFF7A5
:1036B000C3FE15E0FFF7B8FEC0231840984201D1C1
:1036C00003232373FFF7B0FEFFF7AEFEFFF7ACFE58
:1036D000201CFFF7B1FE201C0199FFF7EFFE051C2F
:1036E000281CFEBDF80400206C05002090D00300CB
:1036F00038B5041C01F008FB051CFFF795FEE072CD
:10370000FF2808D101F000FB9623401B5B00984284
:10371000F3D90F2302E0FE2806D00D23201C63718D
:10372000FFF78AFE002000E0012038BDF8B5041C38
:103730000F1C151C1E1E45D09A1880239B009A4210
:1037400042DC8379002B05D00268914202D10389C3
:10375000AB4216D9237B2760032B00D07F023A1C93
:10376000201C1121FFF7F2FE071E02D00323637114
:103770002AE0201CFFF7BCFF002825D00123278169
:10378000A3712389AB4205D2FFF74EFE2389013393
:103790002381F6E7069D069AAB1A9BB2B34204D288
:1037A000FFF742FE28700135F5E72389A27AF31866
:1037B0009BB22381002A02D0064A934202D9201CE0
:1037C000FFF766FE012003E0201CFFF735FE002016
:1037D000F8BDC046FF01000007B5802300929B00A2
:1037E0000022FFF7A3FF0EBD70B5051C081C161CB8
:1037F000FFF712FE0024305DFFF70EFE0134802338
:103800009B009C42F7D1FF20FFF706FEFF20FFF749
:1038100003FEFFF709FE1F23E87203400120052B7A
:1038200005D01123281C6B71FFF706FE002070BD28
:1038300070B50B1C041C161C002901D1122328E0B2
:10384000027B032A00D04B02201C18211A1CFFF710
:103850007DFE051E01D004231BE0201CFE21321C2E
:10386000FFF7C2FF002815D09621201C8900FFF722
:103870005BFE002801D115230BE0201C0D212A1C22
:10388000FFF764FE002803D1FFF7CEFD002806D025
:1038900014236371201CFFF7CFFD002003E0201CE0
:1038A000FFF7CAFD012070BD034B044A1A600022D5
:1038B0005A711A717047C0466C05002000093D001E
:1038C000021C10B50C32041C0121406A00F062FD9C
:1038D00000280AD0236A0120002B06D1E368227A4F
:1038E000236280235B421343237210BD70B5041C16
:1038F000FFF7E6FF002801D100201BE0636AE668BD
:103900001A7C023E96405A691D79B618002D08D0DF
:10391000701E401900F08AFC0028EDD0013DEDB288
:10392000F4E7636A01201A7C80239B009340E269DC
:10393000D318E36170BD000010B5041C406900F0AD
:1039400051FC002803D0207E014B4001C01810BD5F
:103950008405002030B50022131C845C202C0AD082
:10396000D4B2082C03D15C1C2E25CD54E3B2855C67
:103970005C1CCD54E3B201320B2AEED10022CA54B2
:1039800030BD0000F0B5002387B0071C0E1C2022BC
:10399000F25401330B2BFAD10721002501913C7819
:1039A000002C2AD02E2C06D1019B0A2B2BD00A21C9
:1039B000082501911FE002A81449102203F0D3FE4C
:1039C000002302A9CA5C002A03D00133A242F8D125
:1039D00019E0019B9D4216D8231C213B5D2B12D878
:1039E000221C6B1C613ADBB27519192A01D8203CE4
:1039F000E4B22C701D1C0137D1E730782038431E0B
:103A00009841C0B200E0002007B0F0BD107B00007C
:103A100038B5427A041C0D1C002A01D000201FE09A
:103A20004B1CDB7F102B06D10223437202624B8CAE
:103A30005B01C3610CE0202BF0D103234372496A80
:103A4000221C01621C32281C00F03EFC0028E5D03C
:103A50000023012065622072E360236163612376A5
:103A600038BD0000F0B5437A85B0041C0E1C0392EB
:103A7000002B01D13A4811E0037AD807FAD5E26960
:103A800020690399131A994201D99BB203930399B0
:103A90000291029B002B04D1039988B200B205B0B9
:103AA000F0BD2369617ADF05FF0D5A0A606A0229B9
:103AB00002D1416A51181BE00579013D2A40D5B277
:103AC000002F0DD1002D0BD1002B02D1226AE26014
:103AD00006E0221CE1680C3200F0C6FB0028C9D0C9
:103AE000636AE1681A7C02395B699140C918491917
:103AF0008022029D9200D31B9D4200DD9DB2237A5D
:103B0000580601D4954218D1164B1B68994214D01F
:103B1000154B3A1C186800962B1CFFF707FE00286F
:103B2000A8D0761901E0DF1BF6192169029A4B191A
:103B3000551BADB223610295ABE7081C002100F0D4
:103B400051FB002896D0094B321CFF1879193B1CF9
:103B50008B42E8D01878013310700132F8E7C04684
:103B6000FFFF0000080000208005002084050020E1
:103B700038B5437A051C0C1C012B01D8FF201AE034
:103B80000269D206FAD1281C211C2022FFF76AFF05
:103B900040B220280AD12378002B0BD0E52BF2D09D
:103BA0002E2BF0D0E37A1A07EDD404E00028E5DBF1
:103BB000002000E0181C40B238BD000073B5437A05
:103BC000041C012B01D8002016E003696D4607355F
:103BD000DE05291C0122360FFFF744FF012801D121
:103BE0002B7800E0054B1BB20133ECD02369700148
:103BF0001F332361024BC01876BDC046FFFF000093
:103C00008405002070B5041C407A0D1C00282AD0C1
:103C1000E269914201D9002025E0022821D0002D3F
:103C200001D1E5601DE0626A2169137C681E0933D9
:103C30004A1ED840DA40031E934201D3002902D124
:103C4000226AE26000E0831A1E1C002E09D0221CAA
:103C5000606AE1680C3200F007FB013E0028F4D1F5
:103C600001E02561012070BD38B5051C407A0028AF
:103C700033D02B7A7F2B2DD9281C0121FFF75CFE36
:103C8000041E2AD06B7A012B07D82B7F03776B7F1A
:103C90004377AB7F8377EB7FC3772B6A9AB21B0C9A
:103CA00023751B0A63750D4BA2761B68120AE27618
:103CB000002B0BD0201C211C183016319847637E36
:103CC000227E1B021343A3741B0AE3742A7A7F2308
:103CD00013402B7200F05CFAFFE738BD7805002036
:103CE00010B5041CFFF7C0FF002802D00023637248
:103CF000012010BD73B5427A041C0D1C0020012A5E
:103D00004BD1207A0223184047D0E3690020994222
:103D100043D8101C002B40D0201C291C2669FFF71B
:103D200071FF002825D0606A002D06D1216A00F0BD
:103D300095FB00281DD025621DE0E16801AA00F076
:103D400093FA002815D0606A0199431CDB7F102B81
:103D500001D1124B00E0124B99420CD200F07EFBD5
:103D6000002806D0606AE1680E4A00F0CFFA002809
:103D700001D1002011E0227A80235B421343E561E8
:103D80002372201CFFF770FF0028F2D0291EB142D9
:103D900000D9311C201CFFF735FF76BDF8FF00006D
:103DA000F8FFFF0FFFFFFF0F38B5234B151C4A012B
:103DB000D318041CD87A1122104204D04222154292
:103DC00001D0002036E01D4A2176126862615A7DDA
:103DD000187DD97E12020243987E09021204014323
:103DE00011432162D87A182202400CD15A7F197FE0
:103DF00012020A43997FDB7F09040A431B0613431F
:103E0000E361012309E0102ADBD1221C606A1C3225
:103E100000F05AFA0028D4D0042363720F23002143
:103E20002B402372E160216101206A0602D5201C2B
:103E3000FFF760FF38BDC046840500200800002061
:103E4000F0B5457A87B0041C0E1C0193002D00D0FC
:103E500086E0101C03A9FFF795FD002800D180E043
:103E6000726A2F1C6262F56035613369F2699342B0
:103E700026D2DB051B0F301C0093FFF79FFE011EAF
:103E80006FD00378002B01D0E52B0BD1002F04D18C
:103E9000009B2376344B1B6863610B780127002B52
:103EA000E3D10DE003A80B2203F04EFC0028DCD187
:103EB000019A30231340302B53D0201C00994BE043
:103EC000019A12231340122B4BD1002F06D0201C35
:103ED0000121FFF731FD061E0AD142E0737A022B61
:103EE0003FD0301CFFF702FD00283AD01F4E277646
:103EF00000212022301C03F03FFC301C03A90B22C0
:103F000003F031FC1A4B1B68002B05D0301C311C10
:103F100010300E31984706E021223274B373282204
:103F200008237274F373737C327C1B021343FF22E9
:103F30001A401B0AF3747376F37BB2743276B27B49
:103F40001B021343B3751B0AF37500F021F9002817
:103F500007D0217E019A201CFFF726FF051C00E0F8
:103F60000025281C07B0F0BD0800002084050020B3
:103F70007805002010B50021041CFFF7BBFE0028C7
:103F80000BD0201C0121FFF7D7FC002805D0E5232A
:103F900003700023637200F0FBF810BD10B50A1C1B
:103FA0000A498AB008310023041C009169464B720B
:103FB00001936846211C0223FFF742FF002802D02C
:103FC0006846FFF7D7FF0AB010BDC046207B00004F
:103FD000F0B5437A87B0041C0D1C0392012B0DD160
:103FE000037A99070AD55A070CD5E16922698A42F2
:103FF00008D0201CFFF706FE002803D101236360D0
:104000000020AAE0039B01933BE0606A730A0779F2
:10401000F605013F1F40FFB2F60D002F36D080227B
:104020009200921B019992B20B1C914200D9131C71
:104030009BB20293636AE1681A7C023991405A6923
:104040008B18029ADF1980239B009A423FD1444B80
:104050001968B94202D1012252421A60414B391CFF
:1040600018682A1CFFF7E4FB0028C7D080229200C2
:10407000AD180199029A8B1A21699BB201938B1892
:104080002361019A2669002ABFD149E0002EC6D1DA
:10409000E168002903D1236A002B16D10FE005AA9D
:1040A00000F0E2F8002858D0626A059B0132D27F06
:1040B000102A01D12C4A00E02C4A934205D3201C3F
:1040C000FFF7FEFB0028AAD198E7E360A7E7002EE0
:1040D0000FD12369E1698B420BD300F059F8002816
:1040E0008CD01F4B01211F60214B1A780A431A7094
:1040F00006E0381C012100F075F8002800D17DE7AA
:104100001C4B2A1CF618029BF118331C8B4204D05E
:104110001078013218700133F8E79E1BAD19A8E73B
:10412000E169237A8E4201D9E66106E0124A1268FB
:10413000002A06D0039A002A03D080225242134359
:104140002372237A190701D4039806E0201CFFF795
:104150008BFD002800D151E7F6E707B0F0BDC0465F
:104160000800002080050020F8FF0000F8FFFF0F86
:1041700084070020840500207805002007B56B46E1
:10418000D9710733191C0122FFF722FF0EBD000071
:10419000F8B50F4F01203B78002B18D00D4E0E4B79
:1041A0000E4D196830682A1CFFF742FB00280ED01C
:1041B0000B4C2168002907D030682A1CFFF738FB18
:1041C000002804D00023236000233B700120F8BDA9
:1041D00084070020800500200800002084050020BE
:1041E0007C05002070B50D4D041C2B680E1C83420D
:1041F0000ED0FFF7CDFF002801D100200DE0084BC5
:10420000211C1868074AFFF7E7FA0028F5D02C6050
:10421000054B01201A7816431E7070BD080000205F
:1042200080050020840500208407002010B5041CB0
:10423000FFF7AEFF00280FD00023084A0021995451
:104240008022013392009342F7D1054B01201C607C
:10425000044B1A7802431A7010BDC0468405002032
:104260000800002084070020C36870B501330C1CCF
:10427000151C994201D9002021E0461CF17FC2693A
:10428000E309102900D1230A98180D4B1B689842A6
:1042900007D1F27F0B4B102A09D1E4B264001B5BFB
:1042A0000BE00021FFF79EFF0028F2D1E3E77F2219
:1042B0001440A4001B591B011B092B60012070BD79
:1042C000080000208405002073B5051C0191161C10
:1042D0000024281C019901AAFFF7C6FF002810D06E
:1042E0002A7C80239B009340E4186B1CDB7F019A9F
:1042F000102B01D1034B00E0034B9A42E9D3346009
:10430000012076BDF8FF0000F8FFFF0FF7B5051C90
:104310000C1C0192012932D9C36800200133994253
:104320002ED86F1CFA7FEE69CB09102A00D10B0A38
:104330009E19144B1B689E4208D1FA7F124B102A1B
:104340000BD1E4B2019A64001A530BE0301C002137
:10435000FFF748FF0028F0D112E07F221440019AB5
:10436000A4001A51094B01201A7802431A702B7EBF
:10437000834205D9AB68F618054B1E6000E00020AB
:10438000FEBDC046080000208405002084070020F0
:104390007C050020F0B5156887B0061C0291171C3B
:1043A000002D03D000210135019106E0029B056834
:1043B000013B5A425341DBB20193F26800230132C0
:1043C00003922C1C00930099F268914221D2039B26
:1043D0009C4201D90224251C301C211C05AAFFF790
:1043E00043FF002815D00599631C002901D01D1C2E
:1043F00003E002995A1B8A4204D0009A1C1C013225
:104400000092E0E7301C211C134AFFF77FFF0028D1
:104410000BD100201DE0631E301C191C221C0093D0
:10442000FFF774FF0028F4D0009CAC42F3D8396841
:10443000002906D101993D60002909D00135356078
:1044400006E0301C2A1CFFF761FF0028F2D1E0E7EC
:10445000012007B0F0BDC046FFFFFF0F022337B5B4
:10446000051C0C1C0360281C211C01AAFFF7FCFE84
:10447000002812D0281C211C0022FFF747FF00282B
:104480000BD06B1CDB7F019C102B01D1044B00E097
:10449000044B9C42E7D3012000E000203EBDC04613
:1044A000F8FF0000F8FFFF0FF8B5444B041C151C83
:1044B000196029D0042A01D900207DE00020011CC8
:1044C000FFF790FE0028F7D02D013D4BA935FF35B1
:1044D0005D19AA79AB1D5006EED1EA7CA97C1202C7
:1044E0000A43297D09040A43697D09060A43632AB0
:1044F000E2D9AA7BED7B2D0215439A7ADB7A12046E
:1045000015431B061D43D7D0281C0021FFF76AFE68
:104510000028D1D02A4B197BDA7A09021143802274
:1045200092009142C8D11A7C002AC5D0D9890029AD
:10453000C2D0597B0029BFD022760022217122747B
:10454000227C01209040814204D0501C2074072A14
:10455000F6D9B1E7D98A002900D1596AA160D88972
:104560002818E0611F693E02360C6684B7B21E7CD3
:1045700071430E18134879010918491271186662BF
:104580006161187DDE7C0002304300D1186A6D1A2B
:104590002818D040021CE0600B48611C824201D800
:1045A0000C2307E00948824201D8102302E0DB6AAD
:1045B00063622023CB770120F8BDC0468005002030
:1045C00084050020FF010000F40F0000F4FF00004C
:1045D00008B50368C9B21B68984708BD002343614A
:1045E00001767047F8B50D1C041C017E4069161C4D
:1045F0001F1CFEF759FA291C6069FFF7E9FF351CFB
:10460000AB1B6069BB4205DA036829781B689847D1
:104610000135F5E7FEF7FFFAF8BD07B56B46DA712D
:1046200007331A1C0123FFF7DDFF07BD38B5041C53
:104630000D1C017E4069FEF737FA291C6069FFF7FF
:10464000C7FF00216069FEF7ADFA217E0122606993
:10465000FEF77EFA606903681B699847031C002017
:10466000834204D0606903685B699847C0B238BD73
:1046700008B50021FFF7DAFF0007C00F08BD10B52D
:104680002A21041CFFF7D2FFFE23021C1A40201C23
:104690002A21FFF7C2FF10BD10B52A21041CFFF725
:1046A000C5FF01220243D2B2201C2A21FFF7B5FF29
:1046B00010BD08B50B21FFF7B9FF03231840431EB7
:1046C0009841C0B208BDF7B5041C0F1C161C01931D
:1046D000FFF7EFFF002802D0201CFFF7D0FF7BB2CE
:1046E0000025AB4205DB201C23213A1CFFF795FF78
:1046F000032573B2002B06DB0C23201C2421321C63
:104700001D43FFF78AFF019A53B2002B05DB3023CC
:10471000201C25211D43FFF780FF40222A43201C37
:104720002121FFF77AFF201C26213022FFF775FF99
:10473000201C2721A022FFF770FF201C2821FF2228
:10474000FFF76BFF201CFFF7A7FFF7BD38B5041C70
:104750000D1CFFF7AEFF002802D0201CFFF78FFFD3
:10476000201C0E21FFF762FF0323021C9A43AD10A9
:104770002A43D2B2201C0E21FFF74FFF201CFFF767
:104780008BFF38BD38B5041C0D1CFFF792FF0028C5
:1047900002D0201CFFF773FF201C2A21FFF746FFE1
:1047A0003823021C9A43ED002A43D2B2201C2A214E
:1047B000FFF733FF201CFFF76FFF38BD10B5041C57
:1047C000FFF777FF002802D0201CFFF758FF201CBE
:1047D0001121FFF72BFF40220243D2B2201C1121EE
:1047E000FFF71BFF201C12215022FFF716FF201C91
:1047F000FFF752FF10BD10B5416102760D21041C78
:10480000FFF714FF00232A2813D1022163702170BF
:10481000201CFFF79BFF6178201CFFF7B3FF201CD3
:10482000FFF7CCFF80210823201C0A1CFFF74BFF59
:104830000123181C10BDF8B5041C0F1C017E406933
:104840001E1C151CFEF730F9391C6069FFF7C0FE0D
:1048500000216069FEF7A6F9217E6069321CFEF72F
:1048600077F9606903681B699847B04209D12E182F
:10487000B54206D0606903685B69984728700135C6
:10488000F6E7F8BD13B501AC0121221C0223FFF7A6
:10489000D2FF207863780002184300B2001116BDE1
:1048A00038B5041CFFF7EEFF608002F031FEE8210E
:1048B000890502F003FD051C207802F085FE011C2D
:1048C000281C02F0FBFC38BD13B501AC0321221CEF
:1048D0000223FFF7B0FF207863780002184300B28C
:1048E000001116BD38B5041CFFF7EEFFA08002F0E2
:1048F0000FFEE821890502F0E1FC051C207802F09A
:1049000063FE011C281C02F0D9FC38BD13B501ACB4
:104910000521221C0223FFF78EFF20786378000216
:10492000184300B2001116BD38B5041CFFF7EEFFA6
:10493000E08002F0EDFDE821890502F0BFFC051CD6
:10494000207802F041FE011C281C02F0B7FC38BDA3
:1049500070B5051C2C1CFC34161C081C6160FEF78D
:1049600075F8311C6068FEF791F82B1CFF330025A9
:104970005D739D7360681021FEF796F8291C6068CE
:10498000FFF726FE6068FEF746F9606810210122F5
:10499000FEF7DEF8431E9841C0B270BDF8B5061CA4
:1049A0000024371CFC37E30604D17868102120224C
:1049B000FEF7CEF8786803685B699847C0B20A28AA
:1049C00014D0351CFF356B7BFF21F0540133D8B276
:1049D00002F068FCAB79C9B26973002B06D0AB7BDF
:1049E0008B4203D1F868044900F09CFC0134E4B226
:1049F000FF2CD6D1F8BDC046387B000010B5041C92
:104A0000FF34A27B637B9A4201D1FFF7C7FF627B31
:104A1000A37B9A4203D80020934202D9013AD31AC9
:104A2000D8B210BD031CFF339A7B597B914208D04A
:104A3000511CC9B29973805CFF2903D100229A737B
:104A400000E0002070470000F7B58B6800900D1C57
:104A5000FF2B0CD9031CFF339879002847D0009B0B
:104A60002349FC33D86800F05DFC00203FE00026BD
:104A7000009C1021FC346068FEF716F80027AB6834
:104A8000B919994209D16068FEF7C5F820360A20A5
:104A900000F072F9E02EEBD10CE06368281C019362
:104AA00001F03AFA013701780198FFF791FD202FC4
:104AB000E5D1E8E7AB680120E02B18D96068102148
:104AC000FDF7F2FFAB689E4204D16068FEF7A3F8E1
:104AD00001200CE0311C281C676801F01DFA01362A
:104AE0000178381CFFF774FDFF2EEBD1EDE7FEBD1A
:104AF000477B0000F0B5041C85B0171C012600257B
:104B0000BB68013B9E4208D2311C381C01F004FAFC
:104B1000037801365D40F6B2F2E7201C0B4901F044
:104B20002EF9092D03D8201C094901F0A9F91022FA
:104B3000291C01A801F061F901A9201C01F099F9D3
:104B400001A801F0D5F8201C05B0F0BDAE7F000033
:104B50006E7A0000F0B589B0041C01912149151C42
:104B60001E1C01F00CF9201C1F4901F089F9632D6E
:104B70000AD81E4F201C391C01F082F9092D03D8D8
:104B8000201C391C01F07CF9201C291C01F08FF934
:104B9000B368002B03D0201C311C01F06AF9201CE3
:104BA000134901F06DF9211C02A801F00BF902AACA
:104BB00005A80199FFF79EFF05A9201C01F059F9EE
:104BC00005A801F095F802A801F092F8201C0D212B
:104BD00001F063F9201C0A2101F05FF9201C09B0E3
:104BE000F0BDC046AE7F0000617B00006E7A000021
:104BF000677B000008B5024800F0A0FF08BDC04672
:104C00008807002013B5114C1149201C00F0E6FB69
:104C10001049114800F0E2FB1049114800F0DEFB9A
:104C20001049114800F0DAFB1049114800F0D6FB9A
:104C30001049114800F0D2FB032300930123019394
:104C4000211C00220D4800F099FE13BD48080020E9
:104C500000080042000C00424C08002000100042F6
:104C600050080020001400424408002000180042B0
:104C700054080020001C004258080020880700202B
:104C8000FEE7000008B5034B1B68002B00D09847D7
:104C900008BDC0465C08002038B50F490F4CA14242
:104CA00004D100F087F800F0E5FA0BE00C4D8D42DE
:104CB000F7D00023CA18E818A24204D200680433CF
:104CC0001060F7E7FEE79042EBD0064B064A9342AE
:104CD000E7D2002204C3F9E70000002020010020F1
:104CE0000C81000020010020600E002008B500F0BB
:104CF0005EF8002801D100F04FF808BD014B1860A4
:104D00007047C0465C080020014B18687047C046D9
:104D100060080020F7B5144D144CA9681448626867
:104D200003685201D20F2E1C271C8446B0687D6890
:104D300001906D016046ED0F0468AA4203D02A1C61
:104D4000231C0199F2E7A342FAD101988142F7D3DB
:104D50000548D2184068FA23411A06489B00484388
:104D60005343000DC018FEBD10E000E000ED00E070
:104D7000600800205555000070B5041E08D0054B92
:104D80001D681E1C00F012F833685B1BA342F9D3A8
:104D900070BDC0466008002008B5034B1A68013298
:104DA0001A6000F0EBFA08BD600800207047002090
:104DB0007047000070B5494A1E21536802208B439A
:104DC0000343474953608B69082423438B61454C57
:104DD000454B9C829C8A20439882101CDA68940779
:104DE000FCD5424A012414701478E50704D53F4CE1
:104DF000647864B2002CF7DB01249460547864B2C8
:104E0000002CFBDB3A4D394C6560547864B2002CC1
:104E1000FBDB8225354CED016580547864B2002CB3
:104E2000FBDB02249C84DC68E606FCD5314D2E4C6D
:104E3000E562DD682C4CEE06FBD5A58C2E4E354385
:104E4000A584DD68284CEE06FBD5A58C02263543EB
:104E5000A584DC682506FCD5234CE4686606F8D5F5
:104E6000DC68E506FCD500249460547864B2002C1C
:104E7000FBDB224D1D4C656055781C4C6DB2002D3E
:104E8000FADB1E6A1E4D35401D621D6A8026B54341
:104E90001D620323A3601B4B636053785BB2002B3E
:104EA000FBDB00230B72184A4B728B72CB72174BD1
:104EB000FF211A60164B174A1B6812685C01D20E5C
:104EC000214011439A06520F12020B1C1343124A3F
:104ED0001385436880221343436070BD0040004146
:104EE000000400400C06000000080040000C0040D8
:104EF00001050100B905FF7D040A00000007030059
:104F0000FFFCFFFF03060100006CDC020C00002028
:104F1000246080002060800000400042314BFA2174
:104F2000186810B5890002F079F92F4B01389842C2
:104F300024D82E4A2E4B5060186AC0210002000A65
:104F40000906014319620024072194601160196A5F
:104F500080220902090A12060A431A62254BFC2123
:104F60001A6A0A431A62196AFC2292010A431A62F7
:104F7000196AA022D2020A431A6200E0FEE7201C4E
:104F80000021013400F070F8142CF8D11A4C637829
:104F90005BB2002BFADB194B6380194B5A7ED209A6
:104FA000012AFAD0E422D2009A803F22DA70597E98
:104FB000134AC9090129FAD0C0235B0100201361FB
:104FC000907000F023F863785BB2002BFBDB0D4A96
:104FD000094B5A800C4BDA79D209012AFAD04122C6
:104FE0005A7010BD0C000020FFFFFF0010E000E031
:104FF00000ED00E000040040000C00401E400000F6
:1050000000400042214000000048004200B5144A20
:10501000517E131CC9090129F9D00138042813D87D
:105020001969104A0A401A615A780F218A4302F01E
:10503000EBF8030509070300012102E0032100E06A
:1050400002210A435A700AE01169F0231B050B4341
:10505000136153780F218B4302210B43537000BD22
:1050600000400042FFFFFFF010B51824021C201C76
:105070005043274B1818007A40B2013046D003291C
:1050800044D8081C211C02F0BFF8023311216243EE
:1050900098569A18C3011F4852681B189918403136
:1050A000022008700121914059602FE06243985618
:1050B00018499A185268C3015B18991840310620A4
:1050C000087001219140596099611FE051435A567F
:1050D000104859184B68D2011118C81840300624DE
:1050E00004700120984048600B49521850600DE050
:1050F000624398569A18C301064852681B189918BB
:1051000040310220087001219140996010BDC046D5
:10511000747B0000004400411044004118235843B0
:10512000134AF0B5131808241C5701341FD08256B7
:10513000104ED2015D6801249019231C8668AB4093
:105140001E420BD10E1C771EBE4140193440403028
:10515000A50004780426B4432C430470002903D12D
:1051600005495218536002E0024E92199361F0BD56
:10517000747B000000440041104400411823584350
:10518000084A082113185956013109D08256064998
:10519000D20152185B68106AD8400123184000E021
:1051A00000207047747B00000044004118224243F5
:1051B000F8B52D4D0824AA181457031C621C50D0B2
:1051C000481C00240C284CD802F01EF8071E1E1E96
:1051D0001E1E1E1E1E0A0A0A0A000124644240E026
:1051E000092902D1181C002103E00A2904D1181C46
:1051F0000221FFF739FF23E000240B2931D1181CCD
:105200000121FFF731FF2CE018225343EA185268BE
:10521000EB560120141C04405508DB01002C11D072
:10522000124C1B195D1930352E780C010F213140BD
:1052300021439A18C9B2297040321378184310706C
:1052400000240EE0094E0F279B195D1930352E788A
:105250009A18BE433143C9B22970403213781843BB
:105260001070201CF8BDC046747B00000044004153
:105270007047000010B5FFF751FE02F02BFAFFF760
:10528000F7FF0120FFF778FD084C201C01F042F9E0
:10529000201C01F0B7F9FCF73DFFFDF777FB044B4D
:1052A000002BFAD000E000BFF7E7C046330D002026
:1052B00000000000F7B58A18061C0D1C01920C1C9A
:1052C000019B671B9C4207D0336821781B68301C08
:1052D000984701340028F3D1381CFEBD38B5051CB1
:1052E0000C1C081E07D002F027FB2B68021C5B6811
:1052F000281C211C984738BD10B504680B1C9A68FF
:1053000009686368984710BD08B503681B6898472B
:1053100008BD000008B50249FFF7E0FF08BDC04620
:10532000AC7F000038B5041CFFF7D8FF051C201C1B
:10533000FFF7F0FF281838BD38B5041CFFF7DCFF75
:10534000051C201CFFF7E6FF401938BD38B5041CCA
:10535000FFF7C4FF051C201CFFF7DCFF281838BD31
:10536000014B18607047C04610000020024B01221C
:1053700052421A607047C04610000020114A13685C
:10538000591C1DD0013B1360002B19D172B60E4B76
:105390001A7DD107FBD5198B2022FF320A431A83CD
:1053A0000A4ADA610A4A1A801A7DD107FCD5BFF38E
:1053B0004F8F084A084BDA60BFF34F8FC046FDE7B6
:1053C0007047C0461000002000400041021000005D
:1053D00002A5FFFF0400FA0500ED00E00160704740
:1053E000F7B508AC267804689D1E27686C1EA54199
:1053F000ECB2920705683A4327063A432A600268EE
:10540000072529405068B501002C00D05C032943D2
:1054100001430C435460F7BD30B50368C0251C68D8
:10542000AD0312052A402243C024A40209042140EE
:105430001143196003685A6814435C6030BD036807
:1054400001211A680A431A6002681168012319428F
:10545000FBD1D1691942F8D17047036802211A685B
:105460000A431A600268D3699907FCD4704703683D
:105470001A7ED10702D41A7E9107FCD570470368C3
:1054800000225A8370470368187E4007C00F704798
:105490000368187EC009704703688022197E524253
:1054A0000A431A7670470368187E01231840704734
:1054B0000368188DC0B2704703681A7E012002424B
:1054C000FBD019857047036801229A7570470368FD
:1054D00001221A757047000070B5036801268D0718
:1054E000ED0F31401C686D070907294321431960FE
:1054F00004685100034801F091FE0138C0B22073E6
:1055000070BDC046006CDC02036801211A680A43C2
:105510001A600268116801231942FBD1D16919424E
:10552000F8D17047036802211A680A431A600268BA
:10553000D3699907FCD470470368DA699107FCD4F2
:105540001A6802218A431A60704703689A6A520AED
:1055500052021143996203681A7E5107FCD5986A7A
:10556000C0B27047036801211A680A431A600268D2
:10557000116801231942FBD1D1691942F8D1704752
:10558000036802211A680A431A600368DA699107FE
:10559000FCD45A8B30218A4310210A435A83026873
:1055A000D3695907FCD47047036802211A688A43FB
:1055B0001A600268D3699907FCD470470368802297
:1055C00019685968D2020A435A6070470368034A4F
:1055D000196859680A405A607047C046FFFFFBFFD0
:1055E00030B5036803241D680C40074A5968240439
:1055F0000A40ED0622436D0F5A60052D03D1026863
:10560000D3695907FCD430BDFFFFFCFF49001143AB
:10561000036830B5CDB2598B032409092140012913
:1056200004D0598B09090C40022CF4D1596AC90ADB
:10563000C902294359620368002A03D11A7ED1079F
:10564000FCD50DE0187E01224008104008D1197EDB
:105650001142F7D05968C02292020A435A6003E00F
:105660005B8B01209B08984330BD03682833197079
:105670000268107E0123184003D1518B1942F8D0E3
:1056800003E0528B181C920890437047036828333C
:105690001970036800201A7E510703D55B8B012027
:1056A0009B089843704703681868C006400F043889
:1056B00043425841C0B270470368187E4007C00F8C
:1056C00070470368187E0123184070470368588BA1
:1056D000C006C00F70470368187E8007C00F704770
:1056E0000368588B0007C00F704703681A68D2061A
:1056F000520F052A02D11A7E9107FCD5283318785B
:10570000C0B270470368224A30B5934211D0214A93
:10571000934211D0204A934211D0204A934211D093
:105720001F4A934211D01F4A934230D10E231922AF
:105730000DE0092314220AE00A23152207E00B23B7
:10574000162204E00C23172201E00D231822DCB2FC
:10575000154901209B08A0409B0008605B180320AE
:10576000C021890004405D58E000FF248440A54327
:105770002C1CC0258540281C204358508023DB0169
:105780001A430A4B5A805A7852B2002AFBDB30BDCA
:1057900000080042000C00420010004200140042C9
:1057A00000180042001C004200E100E0000C004034
:1057B000F8B5041C151C0E1C1F1CFFF7A3FF201CB2
:1057C000FFF73DFEB1001C220A4069072368090C5F
:1057D0000A431A60226884239375012E1AD1082186
:1057E000012D00D110210C4B79431868C00001F045
:1057F00015FD236807219A890140D2044903D20C80
:105800000A439A8123680004C20C9889400B400324
:1058100010439881F8BDC0460C000020F7B50193F5
:1058200008AB041C1F780D1C161CFFF76DFE201C16
:10583000FFF768FFBF070C221743C022920336050B
:105840001640C02292022D0423683E430199154060
:10585000354307221D600A408021236889020A43DC
:105860005A60F7BD70B5041C0E1CFFF74BFF201CDF
:10587000FFF778FE236814221A600D4B71001D6833
:105880002468281C01F0CAFC0A49061C281C01F0E7
:10589000C5FC7D23FA215843C90001F0BFFC301A32
:1058A000E668FF23053818409E430643E66070BD56
:1058B0000C00002040420F000120704708B503682B
:1058C000014A1B6A984708BD13040000826D436DAE
:1058D0009A4203D0836DC018007D01E00120404250
:1058E000704710B5041C0069FFF7A9FD0023221CB6
:1058F00063659C32A365A0341360236010BD000073
:10590000F0B587B001930CAB1B78002502930DAB6B
:105910001B78402603930EAB1B78041C04930FAB3B
:105920001B780F1C0593FA239B008360124B009297
:10593000083303604560291C321C143001F01CFF41
:10594000201C6565321CA565291C5C3001F014FF24
:10595000009A231C9C331D605D6027611A72019AB6
:10596000201C5A72029A9A72039ADA72049A1A7373
:10597000059A1A7707B0F0BDC07F000030B585B03A
:10598000041C08A8057809A8007800950190FF205C
:1059900002900390201CFFF7B3FF201C05B030BD20
:1059A000F023081C18403038434258417047F02318
:1059B0001B01194080239B0099420CD0C0239B00FF
:1059C000994206D080235B000520994204D0002034
:1059D00002E0072000E0062070470F23194001294C
:1059E00005D002394B424B410220C01A00E0002092
:1059F00070470000F0B5031C85B00391A433041C6C
:105A0000182718783B1C4343344E0821F318595685
:105A1000151CFFF7CBFB231CA53318783B1C434315
:105A20000821F3185956FFF7C1FB231CA7331B7835
:105A3000022B0AD1231CB8331878FF2805D047431E
:105A40000821F7197956FFF7B1FB271CA8373878DA
:105A5000FF281AD00121FFF707FB3B7818225A4391
:105A6000B3561F4FDB01211CAC31D81908601D490A
:105A7000B6185B18211C7268B0310B60012191408F
:105A80000A1C211CB4310A601A6001210A1C039B04
:105A90002069FFF78DFE291C201CFFF788FF291CB9
:105AA000071C201CFFF799FF291C061C201CFFF770
:105AB00077FF391C0090331C20690122FFF790FC0E
:105AC000231CA7331978013B1A782069FFF7A4FC3F
:105AD0002069FFF7C2FC05B0F0BDC046747B000032
:105AE0001844004114440041026C436CD01A00D5A4
:105AF0004030704710B5041C201C5C30FFF7F4FFE9
:105B00000028F9D12069FFF7B2FC10BD08B51430A8
:105B1000FFF7EAFF08BD026C436C9A4204DB036C9A
:105B2000406CC01A3F3003E0426C036CD01A01385D
:105B3000704708B55C30FFF7EEFF08BD38B5041CB0
:105B40000069FFF7A0FC00281FD02069FFF7B0FC18
:105B5000636D3F2201331340A26D934203D0626D07
:105B6000A21810756365231CA8331B78FF2B0CD07B
:105B7000201C1430FFF7CFFF092806DC231C221C51
:105B8000AC33B4321B6812681A602069FFF78BFCD3
:105B9000002820D0251C5C35281CFFF7A5FF031C1E
:105BA0002069002B15D0231C221CA0339C321968BD
:105BB0001268914207D01A68A95C1A683F25013221
:105BC0002A401A6001E001214942C9B2FFF774FC82
:105BD00001E0FFF77CFC2069FFF75AFC002805D0A4
:105BE0002069FFF759FC2069FFF749FC38BD000028
:105BF00070B5041C00690D1CFFF755FC00280FD080
:105C0000201C5C30FFF770FF002840D008E0EFF365
:105C10001083DA0723D4214B5A68D205D20D0BD159
:105C2000231C9C33211C1E68A0310A6801363F20CA
:105C300006409642EBD01BE0103AD2B253B2002B92
:105C400008DA0F231A40083A154B92089200D2182E
:105C5000536804E09B08C033124A9B009B5820699C
:105C6000FFF721FC0028DBD0201CFFF767FFD7E7F8
:105C70001A680968013202408A4204D01968201C5F
:105C80005C3045541A602069FFF71DFC03E0206971
:105C9000291CFFF711FC012070BDC04600ED00E09B
:105CA00018ED00E000E100E038B5826D436D041CA2
:105CB0009A4208D0836D3F22C3181D7D836D013346
:105CC0001340836501E001256D42231CA8331B7836
:105CD000FF2B0BD0201C1430FFF71DFF0A2805DD19
:105CE000231CB033B4341B6822681A60281C38BDEA
:105CF00010B5041C006801F01DFD201C10BD10B57E
:105D0000041C0068002801D001F014FD002323606A
:105D1000A360636010BD38B5041C0D1C0068013120
:105D200001F0CEFD002801D021C4012038BD036858
:105D300010B5041C002B02D043688B4209D2201CF2
:105D4000FFF7E9FF002805D0A368002B01D12268E6
:105D50001370012010BD70B50E1C111C041C151C05
:105D6000FFF7E5FF002803D1201CFFF7C8FF04E080
:105D7000A5602068311C01F0D7FD201C70BD38B52E
:105D80000023041C0D1C036043608360994207D00C
:105D9000081C01F0D1FD291C021C201CFFF7DBFFB1
:105DA000201C38BD10B50B1C041E8C4208D009689D
:105DB000002903D09A68FFF7CEFF01E0FFF79FFFAD
:105DC000201C10BD10B50023041C036043608360D9
:105DD000FFF7E8FF201C10BD38B5041C0D1E08D0CD
:105DE000081C01F0A9FD291C021C201CFFF7B3FFB1
:105DF00001E0FFF784FF201C38BD1FB50023041C01
:105E0000036043608360081C01A901F09CF9201C19
:105E100001A9FFF7E1FF201C04B010BD10B500235D
:105E20008AB0041C036043608360081C01A901F070
:105E300052F9201C01A9FFF7CFFF201C0AB010BDAA
:105E4000F8B5041C0F1C866801D100250FE0012560
:105E5000002A0CD09619311CFFF769FF0028F4D0F6
:105E60002268A368391CD01801F05EFDA660281CCA
:105E7000F8BD08B50B1C9A680968FFF7E1FF08BD7B
:105E800038B5051C0C1C081E06D001F055FD211C60
:105E9000021C281CFFF7D4FF38BD07B5002201AB58
:105EA00019705A70191C0122FFF7CAFF0EBD1FB5E9
:105EB000041C0A22081C694601F00DF9684601F02D
:105EC0003BFD6946021C201CFFF7BAFF04B010BD61
:105ED0000B1C10B509689A68041CFFF7B1FF002875
:105EE00002D1201CFFF70BFF201C10BD10B58A68E3
:105EF0008468031C002094420CD31B68834209D0A1
:105F00000968814206D0A21A981801F003FD4342A5
:105F10005841C0B210BD00008368994203D20368A3
:105F20005818002B02D10248002303707047C04666
:105F3000640800203F20704713B502686B46D97192
:105F400007335468191C0122A04716BD08B5006923
:105F5000022100F041FC08BD08B50069032100F0F2
:105F600051FC08BD38B50D1C041C131C006903212D
:105F70002A1C00F043FD002801D10123636038BDD5
:105F800010B5054C23685A1C04D103685B69984717
:105F90002060031C181C10BD64000020074A08B5CF
:105FA0001368591C04D0012149421160181C03E0F8
:105FB0000069022100F014FD08BDC0466400002005
:105FC00008B503780349023303704222024800F007
:105FD000CBFD08BD20000020330D002010B5017856
:105FE000031C42780020A12908D1212A2FD118486A
:105FF0001849072200F0B8FD012028E0212926D108
:10600000202A05D113490722114800F041FC04E081
:10601000222A10D19A780F4BDA710E4B962219680A
:10602000D200914210D1DC7901231C400CD1FA201E
:10603000FFF796F90AE0232A09D1DA789B78120251
:106040001A43054B1A6002E0FFF790F9002010BDDB
:10605000330D0020140000201C00002070470000B9
:10606000064BFA2189009960054900220831196020
:1060700004495A6019611A767047C04668080020C2
:10608000F87F0000330D002010B507230F220240D7
:10609000141C00093034092A00DD0734CC54013BBC
:1060A000F4D210BD70B582291ED1C2B22A49530163
:1060B000CB189D69294C80012C40C025AD052C438F
:1060C0009C61274C0832201858610B6852019918BE
:1060D0000C798020404220430871D15C70208143BC
:1060E00030200143D15435E0002933D1C2B21A49DE
:1060F0005301CB189E68194DC0242E40A405264399
:106100009E60184E800109683018083258605201AC
:10611000505C0726B0430126304350549E693540F9
:106120002C439C610E4C5C61505C7024A043102495
:10613000204350549C680C488A18204080246403F3
:106140002043986098684021800B800398605379C1
:106150000B43537170BDC0463C0D0020FFFFFF8F05
:1061600090090020540B0020FF3F00F038B5041CBC
:1061700008CC01211A78051C0A431A708022201CC1
:106180000021520001F0F8FA2B689A78D107FCD46C
:106190005C6238BD134BF0B51B6899035A029B0132
:1061A000C90ED20E5B0F1F2900D105211F2A00D175
:1061B0001D22072B00D1032304688E01278D0A4975
:1061C0001F2539403143218501682A400C8DAC439D
:1061D00022430A8502681903108D044B03400B43C8
:1061E0001385F0BD246080003FF8FFFFFF8FFFFFA5
:1061F000EFF3108303600123436072B670470368B6
:10620000002B02D162B6BFF36F8F704737B50569B7
:10621000041C6846002D12D1FFF7EAFF019B013BE9
:1062200003D3621DD57FEDB2F9E768460193FFF70E
:10623000E6FF0020854217D0206AE36913E0FFF7EC
:10624000D7FF019B0025013B04D3221C3432157873
:10625000EDB2F8E768460193FFF7D1FF00208542D1
:1062600002D0206BE36AC01A3EBD0000436810B53F
:106270001A68037A01215B01D318FF339A7A0A4323
:106280009A72037A42685B01D318C2689C689104D1
:106290000B4A090922400A439A60037A42685B016B
:1062A000D3189A684021920B92039A6043681A6847
:1062B000037A08335B01D3181A790A431A7110BDA7
:1062C000FF3F00F0F7B50569041C0E1C171C68465B
:1062D000002D1FD1FFF78CFF019B013B5A1C06D0FC
:1062E000621DD17F5A1E00293AD0131CF6E768467A
:1062F0000193FFF784FF0025E369BD4235D0226A90
:10630000934232D25A1CE261A269D3181B787355AA
:106310000135F1E7FFF76CFF019B013B5A1C08D0E8
:10632000221C343215785A1EEDB2002D18D0131CE1
:10633000F4E768460193FFF762FF0025E36ABD4278
:1063400026D0226B934241D322E0621D0021D177F7
:1063500030321678581E8E4214D1031C5A1CF4D1C8
:1063600068460193FFF74BFF38E0226A934235D12C
:106370000023E361012323616846FFF739FF019B96
:10638000013BEBE71170201C0193FFF76FFFF6E76D
:10639000226B934222D10023E36223616846FFF718
:1063A00027FF019B013B5A1CDAD0221C343200210A
:1063B000117001321678581E8E4201D1031CF2E78B
:1063C0001170201C0193FFF751FFEAE75A1CE262AB
:1063D000A26AD3181B7873550135AFE7281CFEBDA0
:1063E00037B54368027A1B68083252019A18041CB8
:1063F000D0790123FF21184255D0D371A068656977
:1064000062680140002D1FD149015218916889042A
:10641000890C2162216A002942D06361A36A68461F
:106420005360FFF7E5FE019B013B5D1C34D0621D0C
:106430000120D0772F3211785D1EC9B212180029C1
:1064400015D111702B1CF0E74B01D3189A689204F8
:10645000920C2263226B002A22D000226261A26980
:1064600068465A60FFF7C4FE019B013B12E00193AE
:1064700010706846FFF7C3FE15E0221C343201207D
:106480001070621DD17F5D1EC9B230320029EED17D
:1064900011702B1C5D1CF0D168460193FFF7AFFE15
:1064A000201CFFF7E3FE37BD37B500236C46E371D0
:1064B0000734201C0D1CFFF783FD2B68181828607B
:1064C00000F090FE211C00F046FE2B681818286092
:1064D00020783EBD03290BD10D4BB2221B68520020
:1064E000985C8021494201439954022168220CE0C2
:1064F00001290CD1064B92221B685200985C802126
:1065000049420143995402212822FF32995470478D
:106510003C0D002038B5304B00240121051C1A2009
:106520001C70FEF7A1FD1A200121FEF7F7FD2B4B91
:10653000192001211C70FEF797FD19200121FEF79B
:10654000EDFD274B2021DA6901200A43DA61254B52
:1065500006241A7802431A70234B0F2219789143AC
:10656000197019782143197020490C78204308705C
:1065700019780A401A701A7860210A431A701C4B65
:106580001C4A5A805A78D209FCD11B48FEF7B6FB48
:106590001A4C201CFFF7EAFD201CFFF7FBFD2368C7
:1065A0007F2219780A401A701A7804210A431A7057
:1065B0001A890C218A431A81C121114A8900505835
:1065C0000002000A5050802111601A7802210A430B
:1065D0001A7001232B7038BD500B0020380D00209D
:1065E00000040040584400413C44004159440041EB
:1065F000000C0040064000002D7000003C0D002003
:1066000000E100E00078002810D0094B01211B6850
:106610001A898A431A811A8B08210A431A831A8B12
:1066200004210A431A83034B00221A607047C046B4
:106630003C0D0020400E00200F4B9A69920B9203F4
:106640009A611B680222FF331A72987980225242A3
:1066500002439A711A7A9007FCD5084B081C997A64
:106660007F221040914301439972997A80225242CD
:106670000A439A727047C0463C0D0020005000410A
:1066800010B50B790C1C002B0BD1081CFFF7A6FCD6
:10669000002804D1094B9A69920B92039A61012058
:1066A0000BE000F09FFD211C00F089FD0028F6D1D1
:1066B000024B9A69920B92039A6110BD3C0D002027
:1066C000F7B50E1C832A18D1CAB235495301CB182D
:1066D0009C693448B6012040C024A4052043986139
:1066E0003148083286195E610B685201D15C702016
:1066F000814340200143D15450E0022A4AD12B4A21
:1067000089008D580191002D48D1382000F01FFDDF
:10671000274B80270360224B7F004360431D0562A7
:10672000866005614561C561C760DD772F33041C54
:10673000C56205631D70381C5D7000F0F1FFA0613B
:10674000381C00F0EDFFFF2315491E407601A062C2
:106750008E19B168134A07250A40C02189050A43EA
:10676000B260A16862681940126808314901885C0A
:10677000A843032528438854A268616813405B013D
:10678000A269CB185A60201CFFF770FD019B0749D6
:106790005C5003E0081C111CFFF784FCF7BDC046E9
:1067A0003C0D0020FFFFFF8F90090020140D0020FA
:1067B0002880000038B5051C0124064BA200D258E1
:1067C000002A06D0211C281C0134FFF779FFE4B20F
:1067D000F3E738BD6800002008B5084B8A00D058A0
:1067E000002803D003689B68984706E0C9B2044BB1
:1067F0004901591888688004800C08BD140D0020D8
:106800003C0D002010B50C1CFFF7E6FF00280CD053
:10681000064BE1B21B680831490159184A798023B7
:106820005B4213434B710223CB7110BD3C0D002022
:1068300070B5CAB2134B1448540189015918031991
:1068400059609D681149083229408025AD022943CD
:10685000996099684026890B890399600368510102
:1068600059180D7935430D715101591889794D0623
:10687000FAD551015918C979CD07FAD50419A0687C
:10688000C0B270BD540B00203C0D0020FF3F00F053
:1068900038B50C4B141C1B680D1CFF335A79402172
:1068A0000A435A710021FFF7C3FFA04200D9201C00
:1068B0000023A34204D0044A9A5CEA540133F8E767
:1068C00038BDC0463C0D0020540B002010B5C9B2A5
:1068D0000C48490143189A689204920C3F2A08D93F
:1068E000141C9A68403CA404920BA40C920322430B
:1068F00002E09A68920B92039A6041188868C0B2CD
:1069000010BDC0463C0D0020F0B51C1C2F4B85B0BF
:106910001B68061C0D1C0292002B51D02C4F39789D
:10692000C9B2002902D11920FEF7F8FB64233B709D
:10693000284BAA00D058002805D0036802995B684C
:10694000221C984740E0301C291CFFF745FFA0425D
:1069500004D2301C291CFFF73FFF041C291C301CEB
:10696000FFF7B4FF1C4FE9B24A0101913968039265
:106970008B18FF335A7A01210A4318495A72AB0126
:10698000C9180298221C00F0EEFE002C1BD0301C0F
:10699000291CFFF721FF002815D1019B3A68083315
:1069A0005B01D31819794020014319710121D97174
:1069B00003995318FF339A7A01210A439A7202E02D
:1069C0000120404200E0201C05B0F0BD400E002038
:1069D000380D0020140D00203C0D0020540B002029
:1069E00013B56C460734221C0123FFF78DFF0128E5
:1069F00001D1207801E00120404216BDF0B51C1CF9
:106A00003F4B85B01B680E1C0292002B6AD080237E
:106A1000DB019C4266D83B4D2978C9B2002902D1DE
:106A20001A20FEF77BFB642300222B700092002CBF
:106A300056D0354DF7B22B6801933B1C0833019AB1
:106A40005B01D3189B79DB091AD0304B30491868A9
:106A500000F0E4FB2F4B1721584300F0DFFB3B1CF9
:106A60000833019A5B01D318DB799A0708D42A4BC3
:106A70009A5D002A38D1421E002835D0101CEEE75E
:106A8000254B00229A55251E3F2D00D93F25234A2C
:106A9000B301D318181C02992A1C039300F063FE5B
:106AA000194A7B01D318039AA9045A619A69890C7F
:106AB000920B92030A439A613B1C019A08335B01D3
:106AC000D3180222DA715979802252420A435A714C
:106AD000009B029A5B1952190093641B0292A6E76D
:106AE00000980BE0012008E001229A557B01ED1887
:106AF000AB69101C9B0B9B03AB61404205B0F0BD22
:106B0000400E0020500B00203C0D00200C00002007
:106B100040420F00701101008809002090090020F8
:106B200070B50E4D1C1C8B01ED18281C0E1C111C81
:106B3000221C00F018FEF6B20949760189194D6150
:106B40008A69084B201C13408B618B69A2049B0B44
:106B5000920C9B0313438B6170BDC04690090020CB
:106B60003C0D0020FF3F00F0F7B5114B01901B7862
:106B70000F1C141C002B19D10E4B1E78002E01D1B6
:106B8000151C08E00C4D0D482E888019361900F0B0
:106B9000EAFD2E800AE0002D08D0BA192B1C0198BE
:106BA0000021FFF7BDFF36182D1AF4E7201CFEBDAB
:106BB000320D0020300D00208609002085080020BD
:106BC000F8B50E1C00AF151E012D28D9D31DDB080A
:106BD000DB006A46D21A9546081C00F0ADFE013073
:106BE0006C4640000323207063700222AA420ED23A
:106BF0003378002B0BD0511CC9B20136A354A942E3
:106C000004D0002302326354D2B2EFE72A1C0548B5
:106C1000211CFFF7A9FF431E9841C0B200E00020ED
:106C2000BD46F8BD330D002008B5044B00221A7094
:106C3000034B04491A88FFF797FF08BD300D002069
:106C40008609002085080020F0B5204A87B001237E
:106C50000026009102A91370051C0296FFF724FC80
:106C600003AC092701903A1C201C311C00F084FD64
:106C700002236370A023E371FA232372029B012293
:106C8000DB196380019B62712371104A009B27709E
:106C90001670BB4205D1281C211C1A1CFFF764FF8B
:106CA00011E00B4B01221A700A4B211C3A1C281CC4
:106CB0001E800296FFF758FF281C02A9FFF7F4FB7D
:106CC000281CFFF7B1FF012007B0F0BD320D0020F6
:106CD000300D00208609002070B5CE7892B0051CDA
:106CE0000C1C022E08D1C9882D48FFF7ADFF031CEC
:106CF000581E8341D8B251E000F074FA211C00F014
:106D00003FFA002803D0C3171B1AD80F46E0012E04
:106D100004D1E2882349112A3BD837E0032E3DD124
:106D2000A278002A05D12049E2880B7893422DD819
:106D30002FE0022A03D1A279281C1C4904E0012A71
:106D400005D1A2791A49281CFFF73AFF26E0032A49
:106D500024D1184B01A91868FFF796F9164B03A91F
:106D60001868FFF791F9154B05A91868FFF78CF91A
:106D7000134B07A91868FFF787F900F033FA09A940
:106D800000F00EFAA279281C01A9DDE7D2B2002A90
:106D900000D10A78281CFFF7E7FE012012B070BD71
:106DA000330D002046800000428000005880000023
:106DB000388000000CA0800040A0800044A080002B
:106DC00048A0800073B5051C48780C1C0B2878D8A7
:106DD00000F01AFA081C7728773E4306474B686F85
:106DE00000206FE0097801AA002903D111705170C9
:106DF000281C09E0002313705370334B1B78012BC0
:106E000000D11370281C002102234FE08A78002350
:106E1000012A04D101AA137053702C4BEEE72A4AC1
:106E2000137049E08E78012E07D1284B01AA00216A
:106E30001E701170281C331C38E0002E08D1224A25
:106E400001231370224A9169890B8903916138E00B
:106E5000A178281CFFF7F0FB33E0281CFFF73CFF6C
:106E600030E0281C00211B4A1FE00A780020D306CE
:106E700028D1281CFFF79EFCA2781549154B022447
:106E80001A600A682A23FF33D05C2043D0544A207A
:106E9000FF30145C01231C4314548A69920B920343
:106EA0008A610EE00C4A281C00210123FFF738FEFE
:106EB00007E08A78084B1A60054B9A69920B920397
:106EC0009A61012076BDC04684080020310D002063
:106ED0003C0D0020400E0020340D0020F8B54B4B37
:106EE000071C1C78002C00D08FE0494D2868838B4C
:106EF00019070ED5201C211CFFF7D4F82B68102091
:106F00001A1CFF32917A01439172424A146008229E
:106F10009A832B689A8B50071FD504229A833E4B85
:106F20001A78002A0AD01A78013AD2B21A701B785D
:106F3000002B03D11A200121FEF7F0F8374B1A7805
:106F4000002A0AD01A78013AD2B21A701B78002BA4
:106F500003D119200121FEF7E1F82B68FF331A7ADB
:106F6000D10626D510221A725A7940210A432C499B
:106F70005A710A786023381C1A4202D1FFF722FFA7
:106F800001E0FFF77DFB002806D02B688022FF334D
:106F9000997952420A4301E0224B20229A712B68D0
:106FA000FF331A7A500604D540221A72597A0A43DE
:106FB0005A722968FE230E8C00241E40E1B2002E76
:106FC00023D0321C012322411A4216D0221C2868E9
:106FD000083252018218D079184203D1D279DA40AE
:106FE0001A4207D0104BA200D058002809D00368DD
:106FF0001B6898470123A3409E430134092CDDD12F
:1070000003E0381CFFF766FAF4E7F8BD300D002006
:107010003C0D0020400E0020500B0020380D0020B9
:10702000540B0020FF500041140D002008B5024809
:10703000FFF754FF08BDC046330D0020014A024B44
:107040001A607047005000413C0D0020F0B58FB031
:107050000D1C029235D0131C023B222B33D80A2A76
:1070600033D1002831DA01234642039305AC019461
:10707000002E12D0301C029900F014F9301C0F1CA5
:10708000029900F0CBF8631C061C092F01DC303795
:1070900000E0573727701C1CEAE7019A9442E9D0B8
:1070A000039A2B1C002A02D02D226B1C2A70019AF5
:1070B000944204D9013C22781A700133F7E7002288
:1070C0001A70281C05E0002003E00022061C039231
:1070D000CCE70FB0F0BD08B5FFF7B8FF08BDF0B5BD
:1070E0008DB0061C0D1C019228D0131C023B222BD4
:1070F00026D803AC0094002E12D0301C019900F069
:10710000D1F8301C0F1C019900F088F8631C061C94
:10711000092F01DC303700E0573727701C1CEAE7E5
:10712000009A9442E9D02B1C009A944204D9013C65
:1071300022781A700133F7E700221A70281C00E049
:1071400000200DB0F0BD08B5FFF7C9FF08BD08B5B8
:1071500000F0E6FA08BD70B544680E1C0025002C4E
:1071600009D02368201C5B68311C9847002804DB89
:107170002D18E468F3E7281C01E00120404270BDAF
:1071800038B544680D1C002C08D02368201C9B686F
:10719000291C9847002802D1E468F4E7201C38BD78
:1071A00038B544680D1C002C07D02368201C291C0E
:1071B000DB689847E4682D18F5E72C7038BD38B5C2
:1071C00044680D1C002C08D02368201C1B68291C57
:1071D0009847002803D1E468F4E7201C00E0012070
:1071E00038BD0000064B0122196810B51140054852
:1071F00005D1022404700424447041601A6010BD5B
:107200004C0E0020440E002002B47146490849008B
:10721000095C49008E4402BC7047C046002934D046
:107220000123002210B488422CD301242407A14258
:1072300004D2814202D209011B01F8E7E400A14215
:1072400004D2814202D249005B00F8E7884201D3B0
:10725000401A1A434C08A04202D3001B5C08224388
:107260008C08A04202D3001B9C082243CC08A042F9
:1072700002D3001BDC082243002803D01B0901D0E5
:107280000909E3E7101C10BC7047002801D000205A
:10729000C04307B4024802A14018029003BDC04693
:1072A000190000000029F0D003B5FFF7B9FF0EBCAC
:1072B0004243891A1847C0467047C046F0B55F463A
:1072C00056464D464446F0B44402460083B00F1C77
:1072D000640A360EC50F002E41D0FF2E22D0802327
:1072E0001B0400201C43E4007F3E82468046391C7C
:1072F0004B007F02C90F7F0A1B0E8B463BD0FF2B32
:1073000034D0802212041743FF007F3B00215A46ED
:107310006A40019252460A430F2A63D87A48920083
:1073200082589746002C3FD1082202239246984665
:10733000DDE70195404602282AD1019A0125154032
:10734000FF2300246402DB05600AED07184328438D
:1073500003B03CBC90469946A246AB46F0BD002C1B
:1073600027D10420012282469046C0E7391C4A1EDC
:1073700091410231CBE70121002FC8D0381C00F029
:1073800073F9431F9F4076235B421B1A0021BEE71F
:10739000032800D1AEE001284FD1019842461040A9
:1073A000C5B200230024CDE70C2303209A46804673
:1073B0009DE7201C00F058F97626431F9C4076423A
:1073C0000023361A9A46984691E780240025E40364
:1073D000FF23B7E75B463C1C01938846AAE73C1CA9
:1073E0008846A7E7250C24043A0C240C3F04F61821
:1073F0003F0C211C231C794353436F435543FB1817
:107400000A0C9B18B1469F4202D980225202AD1845
:1074100009041A04090C521894011B0C611E8C41BA
:10742000920EED181443AD012C43230105D5012222
:1074300063080120144081441C434B467F33002BDA
:107440002DDD600704D00F222240042A00D004342E
:10745000220103D52D4B1C404B468033FE2B17DDFC
:10746000019B01251D400024FF236BE78020C00302
:10747000044208D0074206D1041C3C436402640A5B
:107480005D46FF235EE704436402640AFF2359E775
:107490000198A4010125640ADBB2054052E77E236E
:1074A0005B424A469B1A1B2B05DD019B01251D40B3
:1074B0000024002346E7221CDA404B469E339C40C2
:1074C000231C5C1EA3411343580704D00F221A400B
:1074D000042A00D004335A0105D5019B01251D4023
:1074E000002401232EE701989C010125640A054030
:1074F000002327E78027FF03019B3C43640201250B
:107500001D40640AFF231DE768800000FFFFFFF7AE
:1075100070B5041E3CD0C60F00D04442201C00F0C1
:10752000A3F89E23251C1B1A962B0CDC08388440DC
:107530006402640ADBB2321C6402DB05600AD20713
:107540001843104370BD992B0ADD0522121A211C25
:10755000D1400A1C011C1B318D40691E8D41154311
:10756000052801DD421F9540164C2C406A0704D0C7
:107570000F221540042D00D0043461010CD59F2347
:10758000181AFF281AD0A401640AC3B2321CD3E728
:10759000002200230024CFE7E408FF2B04D064027C
:1075A000640ADBB2321CC7E7002C04D08020C00381
:1075B00004436402640A321CFF23BDE7321CFF232C
:1075C0000024B9E7FFFFFFFB10B5041E33D000F025
:1075D0004BF89E231B1A962B09DC08388440640262
:1075E000640ADBB26402DB05600A184310BD992B04
:1075F0000ADD0522121A211CD1400A1C011C1B3174
:107600008C40611E8C411443052801DD421F9440CB
:10761000144A2240610704D00F210C40042C00D0F2
:10762000043251010AD59F23181AFF2816D094015D
:10763000640AC3B2D6E700230024D3E7D208FF2BA5
:1076400003D05402640ADBB2CCE7002A06D08024BF
:10765000E40314436402640AFF23C3E7FF23002406
:10766000C0E7C046FFFFFFFB1C2101231B0498421B
:1076700001D3000C10391B0A984201D3000A0839C3
:107680001B09984201D30009043902A2105C40187A
:107690007047C0460403020201010101000000001E
:1076A0000000000008B5031C081C191C00F002F8BB
:1076B00008BD000038B5051C05480C1C131C00282B
:1076C00004D00220291C221C00E000BF38BDC046A7
:1076D0000000000070B50E4B0E4D0024ED1AAD10E9
:1076E0001E1CAC4204D0A300F35898470134F8E7BD
:1076F00000F086F9084B094D0024ED1AAD101E1C50
:10770000AC4204D0A300F35898470134F8E770BDA9
:10771000F4000020F4000020F400002018010020F4
:1077200008B5034B011C186800F076F808BDC04688
:10773000F000002008B5034B011C186800F024F885
:1077400008BDC046F000002030B50023934208D0A9
:10775000C55C0133CC18013C2478A542F6D0281B27
:1077600000E0002030BD10B50023934203D0CC5C74
:10777000C4540133F9E710BD031C8218934202D0B0
:1077800019700133FAE7704730B5002940D0043949
:107790000B68002B00DAC9181E4A1368141C002B52
:1077A00002D14B60116033E099420FD208680A1889
:1077B0009A4205D113685268C01808604A6000E018
:1077C0004B60216024E08A4203D8131C5A68002AC7
:1077D000F9D11D685C198C420BD1096869185818D9
:1077E0001960904214D114685268091919605A60DE
:1077F0000EE08C4202D90C23036009E008680C18E3
:10780000944203D114685268001908604A605960B4
:1078100030BDC046540E002070B50323CD1C9D43DF
:107820000835061C0C2D01D20C2501E0002D3FDB94
:107830008D423DD3204B1C681A1C211C002913D0FB
:107840000868431B0DD40B2B02D90B60CC181EE02B
:107850008C4202D1636813601AE0486860600C1CB7
:1078600016E00C1C4968E9E7144C2068002803D195
:10787000301C00F031F82060301C291C00F02CF87E
:10788000431C15D0C41C03239C4384420AD12560A9
:10789000201C0B300722231D9043C31A0BD05A42E1
:1078A000E25008E0211A301C00F016F80130EED149
:1078B0000C233360002070BD540E0020500E0020B9
:1078C00008B50A1C0349031C0868191C00F04FF88E
:1078D00008BDC046F000002038B5074C0023051C49
:1078E000081C236000F072F8431C03D12368002BAE
:1078F00000D02B6038BDC0465C0E0020C9B20378B2
:10790000002B03D08B4204D00130F8E7002900D0CF
:10791000181C704702780B7801300131002A01D021
:107920009A42F7D0D01A7047031C0A7801311A70B6
:107930000133002AF9D170470023C25C0133002AC9
:10794000FBD1581E704730B5031C002A07D00C78B5
:1079500001335D1E013A2C700131002CF5D19A18CB
:10796000934203D0002119700133F9E730BDF8B517
:10797000061C0C1C151C002904D1111CFFF74CFF20
:10798000041C18E0002A03D1FFF7FEFE2C1C12E0B5
:1079900000F013F8A8420ED2301C291CFFF73CFF60
:1079A000071E07D0211C2A1CFFF7DDFE301C211CFE
:1079B000FFF7EAFE3C1C201CF8BD04390B68181FB9
:1079C000002B02DAC8581B18181F7047094A1368A1
:1079D000002B0CD018186946884202D81060181C79
:1079E0007047054B0C2201201A604042F8E7034B18
:1079F0001360EFE7580E00205C0E0020600E0020A0
:107A0000F8B5C046F8BC08BC9E467047F8B5C046FD
:107A1000F8BC08BC9E467047534420436172642002
:107A20004F4B00414343206661696C6564004143EC
:107A300043204F4B00475053206661696C656400DA
:107A4000475053204F4B002C302C312C312C302CF4
:107A5000302C302C302C302C302C302C302C302C46
:107A6000302C302C302C302C302C302C302C300062
:107A7000526561647921004C4F47303030302E59C7
:107A80004C47004132440041434300475053002FCC
:107A90000054585400796C67007478740059616D13
:107AA0007572612E696E69006C6F67436F756E74D5
:107AB0002E696E69004C4F470030303000000000E6
:107AC00000000000000000005B2B00009F29000068
:107AD00099290000C3290000DF290000212C0000A3
